:020000040800F2
:10000000A8170020652C0008B5040008B7040008F4
:10001000BB040008BF040008C3040008000000007F
:10002000000000000000000000000000C7040008FD
:10003000C904000800000000CB040008CD0400083B
:100040007F2C00087F2C00087F2C00087F2C0008E4
:100050007F2C00087F2C00087F2C00087F2C0008D4
:100060007F2C00087F2C00087F2C00087F2C0008C4
:100070007F2C00087F2C00087F2C00087F2C0008B4
:100080007F2C00087F2C00087F2C00087F2C0008A4
:100090007F2C00087F2C00087F2C00087F2C000894
:1000A0007F2C00087F2C00087F2C00087F2C000884
:1000B0007F2C00087F2C00087F2C00087F2C000874
:1000C0007F2C00087F2C00087F2C00087F2C000864
:1000D0007F2C0008CF2B00087F2C00087F2C000805
:1000E0007F2C00087F2C00087F2C00087F2C000844
:1000F0007F2C00087F2C00087F2C00087F2C000834
:100100007F2C00087F2C00087F2C00087F2C000823
:100110007F2C00087F2C00087F2C00087F2C000813
:100120007F2C00087F2C00087F2C00087F2C000803
:1001300000F002F800F03CF80AA090E8000C8244BD
:100140008344AAF10107DA4501D100F031F8AFF29A
:10015000090EBAE80F0013F0010F18BFFB1A43F0A5
:1001600001031847A4600000C4600000103A24BFD7
:1001700078C878C1FAD8520724BF30C830C144BF0C
:1001800004680C607047000000230024002500264E
:10019000103A28BF78C1FBD8520728BF30C148BFEA
:1001A0000B6070471FB504F0DEFA1FBD10B510BD1F
:1001B00003F00CFE1146FFF7F5FF00F0DFF803F047
:1001C0002AFE03B4FFF7F2FF03BC02F09BFC000021
:1001D0001CB54FF6FF7000F0AAFB4FF01F00A749B7
:1001E0000880A7A04FF01001CDE90010A5490988AB
:1001F000A1F1180188B24FF010034FF0C8024FF080
:10020000000101F021F84FF478409C4908801CBDA2
:100210001CB54FF6FF709C4908804FF47840974911
:1002200008804FF000021146104600F04DFE0122FA
:100230000021282000F048FE02220021502000F07A
:1002400043FE00222321104600F000FE012223215C
:10025000142000F0FBFD02222321282000F0F6FDEF
:10026000032223213C2000F0F1FD04222321502011
:1002700000F0ECFD05222321642000F0E7FD83A0BF
:1002800010210B46C822CDE900103721002000F0D4
:10029000DBFF1CBD70B54FF000054FF04B0411E0C3
:1002A0004FF0000506E02146284601F002F805F16E
:1002B000280085B2734800882738A842F3DC04F18F
:1002C000280084B26F4840882738A042E8DC70BD1F
:1002D00010B57348007805281FD2DFE800F0030C42
:1002E00010151A004FF6FF7000F021FBFFF790FF8A
:1002F000FFF7D0FF11E0002000F019FB0DE04FF4F4
:10030000784000F014FB08E04FF4FC6000F00FFBB5
:1003100003E01F2000F00BFB00BF00BF10BD10B5B5
:100320000446012C09D14FF6FF7000F000FB01F0EC
:1003300091FE01F02BFDFFF74BFF022C0ED1584828
:10034000007800F101005649087008460078052839
:1003500002D14FF000000870FFF7BAFF10BD10B5D2
:1003600004464FF001004F490860204602F051FB5F
:100370004FF000004C49C1F8B00110BD4FF000042F
:10038000254602F00BFB02F073FB4FF4165002F00F
:10039000C6FB00F08DF901F014F900F0C3F900F08C
:1003A000BFFF00F0DDFA4149086880474FF478400C
:1003B00032490880FFF72CFFFFF76CFF5CE000205C
:1003C00000F0CEF90546394841684FF000008847F3
:1003D0003648007D10F0800F39D031480078012870
:1003E00003D04FF6FF7000F0A2FA2EE0002000F0DC
:1003F000B7F905462D4841684FF0000088472B4863
:10040000007D10F0800F20D02848008A1D490988FF
:1004100088421ADA2548408A1A494988884214DAFB
:100420002248018A174800881838814206DD1F4893
:10043000408A102802DAFFF7CBFE06E01B4A518AF9
:10044000108A4FF4784201F0F3FB002DCED02846FD
:10045000FFF765FF04F1010084B2A4F57D40E838A0
:100460000AD104461248006810B94FF0010001E0BB
:100470004FF000000E490860A1E700001A000020BC
:1004800052535400700000201C000020322E3420F3
:1004900054465420535049203234302A33323000ED
:1004A00000000020B0012242000022422000002073
:1004B00094812142704700BFFEE700BFFEE700BF06
:1004C000FEE700BFFEE770477047704770470000C7
:1004D0004FF0000108466D4A126842F480326B4BBF
:1004E0001A6000BF694A126802F4003001F101018C
:1004F00010B9B1F5A06FF5D1644A126812F4003F4B
:1005000002D04FF0010001E04FF00000012842D17D
:100510005F4A126842F010025D4B1A601A46126878
:1005200022F003021A601A46126842F002021A60B0
:10053000564A5268554B5A601A4652685A601A46D3
:10054000526842F480625A601A46526822F47C1261
:100550005A601A46526842F4E8125A601A46126803
:1005600042F080721A6000BF484A126812F0007FA1
:10057000FAD0464A526822F00302444B5A601A46A7
:10058000526842F002025A6000BF404A526802F0CC
:100590000C02082AF9D1704710B5FFF799FF10BD7A
:1005A00010B53A48006840F0010038490860084634
:1005B0004068384900EA010034494860084600684C
:1005C000354900EA0100314908600846006820F416
:1005D000802008600846406820F4FE0048604FF420
:1005E0001F008860FFF7D8FF4FF000602B490860BC
:1005F00010BD10B54FF0000108460246234B5B6862
:1006000003F00C0121B1042906D008292CD107E000
:10061000234B244C23602BE0214B224C236027E00A
:100620001A4B5B6803F47010184B5B6803F480325C
:100630004FF0020303EB90402AB91B4B00FB03F37E
:10064000184C23600FE0114B5B6813F4003F05D09A
:10065000154B00FB03F3134C236004E0104B00FB2D
:1006600003F3104C236003E00D4B0E4C236000BFDE
:1006700000BF064B5B68C3F303130C4CE15C094BF2
:100680001B6823FA01F3074C236010BD00100240E1
:10069000002002400000FFF8FFFFF6FE08ED00E03A
:1006A00000127A000400002000093D00080000202C
:1006B00008B50121582002F05FFE4FF02000ADF890
:1006C00000004FF010008DF803004FF003008DF88C
:1006D00002006946104802F045FB20210E4802F056
:1006E000FDFB4FF02000ADF8000069460B4802F01A
:1006F00039FB2021094802F0F1FB4FF48050ADF89E
:1007000000000146064802F0EBFB4FF4805104481C
:1007100002F0E4FB08BD0000000C0140001801409D
:100720000010014008B50121442002F025FE4FF0E1
:100730001C00ADF800004FF048008DF8030069463A
:10074000384802F00FFB4FF00100ADF800004FF009
:1007500028008DF803006946334802F003FB08BD0A
:1007600010B504461CB14FF00100304908702F4805
:100770000078002839D010212A4802F08FFB78B188
:100780000821284802F08AFB50B10421254802F0D4
:1007900085FB28B10121244802F080FB012824D1E7
:1007A0000F2002F036F94FF00000204908704FF09A
:1007B00010011C4802F072FB08B9012010BD08218D
:1007C000184802F06BFB08B90220F7E7042115482E
:1007D00002F064FB08B90320F0E70121124802F09F
:1007E0005DFB01281CD10420E8E710210D4802F030
:1007F00055FB012814D108210A4802F04FFB0128BB
:100800000ED10421074802F049FB012808D101213B
:10081000054802F043FB18B94FF001000349087086
:100820000020CBE70018014000080140180000201C
:1008300010B504464FF01001F84802F051FB1021AA
:10084000F74802F04DFBE1B2F64800F07BFE1021C4
:10085000F24802F043FB10BD10B504464FF0100102
:10086000EE4802F03DFB1021ED4802F037FB21126B
:10087000EC4800F067FEE1B2EA4800F063FE1021A8
:10088000E64802F02BFB10BD10B504464FF01001F6
:10089000E24802F025FB1021E14802F01FFB21464F
:1008A000E04800F04FFE1021DC4802F017FB10BDBD
:1008B00070B505460C462846FFF7BAFF2046FFF7FD
:1008C000CBFF70BD10B5D8498879FFF7B1FF10BDD7
:1008D00000BF0100A0F10102D0B2FAD17047704709
:1008E000704770B504460D46CF49C879FFF7A0FFA1
:1008F0002012FFF7C9FFE0B2FFF7C6FFCA49087A26
:10090000FFF796FF2812FFF7BFFFE8B2FFF7BCFF23
:1009100070BD70B504460D4629462046FFF7E1FF3D
:10092000FFF7D0FFC1480088FFF796FF70BD70B594
:1009300006464FF00004BC480588408805FB00F5DA
:1009400021460846FFF7CDFFFFF7BCFF00BF04E0DC
:100950003046FFF781FF04F10104AC42F8D370BDCB
:1009600010B54FF00000B24908604FF0320002F0BD
:1009700050F84FF00100AF49C1F884014FF0320048
:1009800002F047F80121AC4802F0AAFA142002F064
:1009900040F80121A84802F0A1FA142002F039F829
:1009A0004FF0F000A04908804FF4A07048804FF04D
:1009B0002C0088714FF02A00C8714FF02B0008728C
:1009C0004FF0CB00FFF734FF3920FFF75DFF2C20FD
:1009D000FFF75AFF0020FFF757FF3420FFF754FFBF
:1009E0000220FFF751FFCF20FFF722FF0020FFF783
:1009F0004BFFC120FFF748FF3020FFF745FFE820FD
:100A0000FFF716FF8520FFF73FFF0020FFF73CFFB1
:100A10007820FFF739FFEA20FFF70AFF0020FFF7F1
:100A200033FF0020FFF730FFED20FFF701FF6420C8
:100A3000FFF72AFF0320FFF727FF1220FFF724FF0D
:100A40008120FFF721FFF720FFF7F2FE2020FFF7BC
:100A50001BFFC020FFF7ECFE2320FFF715FFC1208E
:100A6000FFF7E6FE1020FFF70FFFC520FFF7E0FEBF
:100A70003E20FFF709FF2820FFF706FFC720FFF7FA
:100A8000D7FE8620FFF700FF3620FFF7D1FE482073
:100A9000FFF7FAFE3A20FFF7CBFE5520FFF7F4FEF2
:100AA000B120FFF7C5FE0020FFF7EEFE1820FFF78C
:100AB000EBFEB620FFF7BCFE0820FFF7E5FE822024
:100AC000FFF7E2FE2720FFF7DFFEF220FFF7B0FE80
:100AD0000020FFF7D9FE2620FFF7AAFE0120FFF72E
:100AE000D3FEE020FFF7A4FE0F20FFF7CDFE31205C
:100AF000FFF7CAFE2B20FFF7C7FE0C20FFF7C4FE4E
:100B00000E20FFF7C1FE0820FFF7BEFE4E20FFF7C4
:100B1000BBFEF120FFF7B8FE3720FFF7B5FE072038
:100B2000FFF7B2FE1020FFF7AFFE0320FFF7ACFE89
:100B30000E20FFF7A9FE0920FFF7A6FE0020FFF711
:100B4000A3FEE120FFF774FE0020FFF79DFE0E20BC
:100B5000FFF79AFE1420FFF797FE0320FFF794FE9D
:100B60001120FFF791FE0720FFF78EFE3120FFF7DF
:100B70008BFEC120FFF788FE4820FFF785FE082086
:100B8000FFF782FE0F20FFF77FFE0C20FFF77CFEB1
:100B90003120FFF779FE3620FFF776FE0F20FFF7B2
:100BA00073FE1120FFF744FE782001F032FF292068
:100BB000FFF73EFE2C20FFF73BFE4FF6FF70FFF7DE
:100BC000B6FE10BD2DE9F05F05460E461746984665
:100BD000DDF828A04FF0000BA7EB050000F10100A5
:100BE0001FFA80FB344614E021462846FFF779FEC1
:100BF000FFF768FE4FF0000906E05046FFF72CFEB5
:100C000009F101001FFA80F9D945F6DB04F1010072
:100C100084B24445E8DDBDE8F09F000000080140D3
:100C20000010014000300140700000201A00002038
:100C30008481214200802142000C01402DE9F84FBF
:100C400007460D4690469946DDF828B0A8EB070008
:100C500000F1010080B20090A9EB050000F1010055
:100C60001FFA80FA4FF0000418E0281981B23846C4
:100C7000FFF737FEFFF726FE4FF0000608E004FB03
:100C80000A603BF81000FF49088006F1010086B2B7
:100C900000988642F3DB04F1010084B25445E4DBA2
:100CA000BDE8F88F2DE9FF4F85B081468A464FF0A9
:100CB0000000049003900798A0EB09050898A0EBAA
:100CC0000A06CDF80890CDF804A0002D02DD4FF003
:100CD000010707E015B94FF0000703E04FF0FF37B9
:100CE000C5F10005002E02DD4FF0010807E016B93E
:100CF0004FF0000803E04FF0FF38C6F10006B542A0
:100D000001DD2C4600E034464FF0000B23E0019853
:100D100081B2029880B2FFF7FCFD04982844049049
:100D20000398304403900498A04206DD0498A0EB99
:100D3000040004900298384402900398A04206DD13
:100D40000398A0EB040003900198404401900BF13C
:100D500001001FFA80FB601C8345D8DD09B0BDE8A7
:100D6000F08F2DE9F04104460D4616461F462B46EE
:100D7000324629462046FFF795FF3B462246294644
:100D80002046FFF78FFF3B46324639462046FFF7A5
:100D900089FF3B46324629463046FFF783FFBDE8D0
:100DA000F0812DE9F04706460F4690464FF00004CB
:100DB00045464FF00300A0EB480943E07A1B91B28F
:100DC000321990B2FFF7A5FD3A1B91B2721990B299
:100DD000FFF79FFD3A1991B2721990B2FFF799FD92
:100DE0007A1991B2321990B2FFF793FD7A1991B244
:100DF000321B90B2FFF78DFD3A1991B2721B90B27F
:100E0000FFF787FD7A1B91B2321B90B2FFF781FD8D
:100E10003A1B91B2721B90B2FFF77BFD04F1010403
:100E2000B9F1000F05DA4FEA840000F106008144B1
:100E300008E0A4EB05004FEA800000F10A008144BD
:100E4000A5F10105AC42B9DDBDE8F0872DE9F04719
:100E50008046894614468C4F07EB44174FF0000636
:100E60002EE009EB060081B21FFA88F0FFF739FD8A
:100E7000FFF728FD4FF0000A1CE04FF0000511E0DD
:100E80003878012101FA05F1084204D07F48008832
:100E9000FFF7E2FC03E07E480088FFF7DDFC05F188
:100EA0000100C5B2082DEBDB07F101070AF10100D3
:100EB00000F0FF0ABAF1020FDFDB06F10100C6B253
:100EC000102ECEDBBDE8F0872DE9F047804689463D
:100ED0001446704F07EBC4174FF000062EE009EBE5
:100EE000060081B21FFA88F0FFF7FBFCFFF7EAFC6F
:100EF0004FF0000A1CE04FF0000511E038780121A6
:100F000001FA05F1084204D060480088FFF7A4FC0C
:100F100003E05F480088FFF79FFC05F10100C5B2C0
:100F2000082DEBDB07F101070AF1010000F0FF0AD1
:100F3000BAF1040FDFDB06F10100C6B2202ECEDBD2
:100F4000BDE8F0872DE9F84F81460D4617461E464D
:100F500000954E48B0F80080A7F12000C7B20A986B
:100F6000002852D104464DE00C2E07D107EB470074
:100F7000494901EB800010F804A004E0474800EB69
:100F8000071010F804A04FF0000B34E01AF0800FA7
:100F900003D03E48A0F8008003E03D4800883B496C
:100FA000088029464846FFF7B4FC4FEA4A604FEAFA
:100FB000106A05F1010085B239484088A84204DC76
:100FC0003248A0F80080BDE8F88F0098281AB04297
:100FD0000DD1009D09F101001FFA80F93048008809
:100FE000484503DC2948A0F80080ECE706E00BF157
:100FF000010000F0FF0BBBF1080FC7DB00BF04F1DD
:101000000100C4B2B442AFDB5AE04FF0000455E037
:101010000C2E07D107EB47001F4901EB800010F8A9
:1010200004A004E01D4800EB071010F804A04FF0E6
:10103000000B3CE01AF0800F03D029464846FFF72A
:1010400068FC4FEA4A604FEA106A05F1010085B278
:1010500013484088A84203DC0C48A0F80080B2E79F
:101060000098281AB0421ED1009D09F101001FFA14
:1010700080F90B480088484514DC0448A0F800803B
:10108000A1E7000000000860EA4900081A000020FB
:101090001C0000206A4800082A5700089E5B0008D0
:1010A0007000002006E00BF1010000F0FF0BBBF127
:1010B000080FBFDB00BF04F10100C4B2B442A7DBDC
:1010C0009548A0F8008000BF7DE710B502464FF0BC
:1010D000010000E050430B00A1F10104E1B2F9D19D
:1010E00010BD2DE9FF4F81B0074691461E460E9D6B
:1010F0004FF0000A54463DE0301B401EC1B20A20AA
:10110000FFF7E3FFB9FBF0F04FF00A01B0FBF1F29B
:1011100001FB120000F0FF08BAF1000F16D1701E9B
:10112000A04213DDB8F1000F0ED10020AB4605EB55
:10113000DB71491001FB0471009088B22B4620221C
:101140000299FFF7FFFE12E04FF0010A0020AB46C4
:1011500005EBDB71491001FB0471009088B22B464E
:1011600008F13001CAB20299FFF7ECFE00BF04F1AA
:101170000100C4B2B442BFDB05B0BDE8F08F2DE979
:10118000FF4F83B0064692461F46DDE910484FF0F8
:1011900000000290054652E0781B401EC1B20A20B2
:1011A000FFF793FFBAFBF0F04FF00A01B0FBF1F24A
:1011B00001FB120000F0FF09029858BB781EA842FC
:1011C00028DDB9F1000F22D118F0800F0FD008F000
:1011D0000100A34604EBDB71491001FB056100909F
:1011E00088B2234630220499FFF7ACFE0EE008F0E7
:1011F0000100A34604EBDB71491001FB056100907F
:1012000088B2234620220499FFF79CFE14E04FF099
:101210000100029008F00100A34604EBDB714910C5
:1012200001FB0561009088B2234609F13001CAB282
:101230000499FFF787FE00BF05F10100C5B2BD426A
:10124000AADB07B0BDE8F08F2DE9F84F04460D4644
:1012500090469946DDE90A6704F0FF0A08EB0400AE
:101260001FFA80F809EB05001FFA80F918E04445E1
:1012700003DB544605EB060085B24D4500DB15E067
:10128000012000903A78334629462046FFF75AFE5F
:10129000304606EBD07104EB61018CB207F1010717
:1012A00038787E2802DC38782028E0DA00BFBDE8F4
:1012B000F88F2DE9F04781460F464FF00004254690
:1012C00026E0781981B24846FFF70BFBFFF7FAFAE0
:1012D0004FF0000816E04FF0010000EB44000F490A
:1012E0000E5C4FEA0626084610F8140040EA06068F
:1012F0003046FFF7B1FA04F1010084B208F10100B1
:101300001FFA80F8B8F1280FE5DB05F1010085B27E
:10131000282DD6DBBDE8F0871A000020AA4A000875
:1013200000B587B00121042002F026F8012108034E
:1013300002F022F84FF0A000ADF818004FF01800AE
:101340008DF81B004FF003008DF81A0006A98548A0
:1013500001F008FD4FF01000ADF818004FF0030049
:101360008DF81A004FF010008DF81B0006A97D487B
:1013700001F0F8FC10217B4801F0B2FD4FF01000A5
:10138000ADF818004FF003008DF81A004FF0100070
:101390008DF81B0006A9744801F0E4FC1021724886
:1013A00001F09EFD4FF00100ADF818004FF0030072
:1013B0008DF81A004FF010008DF81B0006A96B483D
:1013C00001F0D0FC0121694801F08AFD4FF00000D6
:1013D000ADF804004FF48270ADF806004FF0000045
:1013E000ADF808004FF00200ADF80A004FF0010020
:1013F000ADF80C004FF40070ADF80E004FF0000097
:10140000ADF81000ADF812004FF00700ADF8140071
:1014100001A9574802F04CF80121554802F008F99B
:1014200007B000BD70B505464FF0000406E004F1BA
:101430000100C4B2C82C01DD002070BD02214D485E
:1014400002F092F90028F2D029464A4802F032F917
:101450004FF0000406E004F10100C4B2C82C01DD25
:101460000020EAE70121434802F07EF90028F2D08B
:10147000404802F021F9C0B2DFE700B587B0012192
:10148000082001F079FF0121880301F084FF4FF467
:101490006040ADF818004FF018008DF81B004FF0B9
:1014A00003008DF81A0006A9304801F05BFC4FF4E8
:1014B00060412E4801F012FD4FF00000ADF804002D
:1014C0004FF48270ADF806004FF00000ADF8080050
:1014D0004FF00200ADF80A004FF00100ADF80C002B
:1014E0004FF40070ADF80E004FF01800ADF810008A
:1014F0004FF00000ADF812004FF00700ADF81400F7
:1015000001A91C4801F0D4FF01211A4802F090F80B
:10151000FF20FFF787FF07B000BD10B50446154850
:1015200000884FF6C77100EA01001249088008469A
:10153000008840EA040008804FF001010D4802F0E5
:1015400077F810BD024600BF108910F0020FFBD0E3
:10155000918100BF108910F0010FFBD09089C0B2BB
:10156000704700000008014000100140000C0140DD
:10157000003001400038004010B54FF00004204614
:10158000F14908604FF09000FFF74CFF0020FFF793
:1015900049FF0020FFF746FF0020FFF743FFFF2031
:1015A000FFF740FF44EA00244FF0FF00FFF73AFF47
:1015B00040EA04044FF00100E449C1F8B0012046BC
:1015C00010BD08B501214FF4947001F0D5FE4FF421
:1015D0008050ADF800004FF010008DF803004FF080
:1015E00003008DF802006946D94801F0BBFB4FF4B7
:1015F0008051D74801F072FC4FF00400ADF80000B4
:101600006946D44801F0AEFB0421D24801F066FCE3
:101610004FF08000ADF800006946CF4801F0A2FB12
:101620008021CD4801F05AFCFFF727FF0020FFF78B
:1016300074FFFFF7A1FFC949088008BD10B54FF03E
:1016400000042046C04908604FF00500FFF7EAFE9D
:10165000FF20FFF7E7FE04464FF00100BB49C1F849
:10166000B001204610BD10B504464FF00000B64949
:1016700008604FF00100FFF7D5FE2046FFF7D2FECD
:101680004FF00100B149C1F8B00110BD10B54FF0E5
:101690000000AD4908604FF00600FFF7C3FE4FF0B1
:1016A0000100AA49C1F8B00110BD10B54FF000000B
:1016B000A54908604FF00400FFF7B4FE4FF00100A9
:1016C000A249C1F8B00110BD2DE9F04106460C4613
:1016D00017464FF000009C4908604FF00300FFF7E9
:1016E000A1FEC4F30740FFF79DFEC4F30720FFF7F8
:1016F00099FEE0B2FFF796FE4FF0000506E0FF20EE
:10170000FFF790FE705505F1010085B2BD42F6DB92
:101710004FF001008C490860BDE8F08110B500BFB2
:10172000FFF78CFF00F001000128F9D010BD2DE972
:10173000F04106460C461746FFF7A8FF4FF00000A1
:10174000814908604FF00200FFF76CFEC4F30740C8
:10175000FFF768FEC4F30720FFF764FEE0B2FFF76F
:1017600061FE4FF0000505E0705DFFF75BFE05F1DF
:10177000010085B2BD42F7DB4FF0010072490860FD
:10178000FFF7CCFFBDE8F0812DE9F04107460E469A
:101790001446F0B2C0F58075AC4200DC254613E07B
:1017A0002A4631463846FFF7C2FFAC4200D10CE072
:1017B0002F442E44A4EB050084B2B4F5807F02DDF3
:1017C0004FF4807500E02546EAE700BFBDE8F081F0
:1017D00010B504464FEA0434FFF758FFFFF79EFFA9
:1017E0004FF00000584908604FF02000FFF71AFE44
:1017F000C4F30740FFF716FEC4F30720FFF712FEFD
:10180000E0B2FFF70FFE4FF001005049C1F8B00100
:10181000FFF784FF10BD2DE9F04781460F461646BD
:101820004FEA1738C7F30B0ACAF58054A64200DC0A
:10183000344649E04FEA08314FF480524848FFF7F8
:1018400043FF4FF0000509E00AEB05004449085C3E
:10185000FF2800D004E005F1010085B2A542F3DBCA
:1018600000BFA54218DA4046FFF7B2FF4FF000056F
:1018700008E019F8050005EB0A01394A505405F152
:10188000010085B2A542F4DB4FEA08314FF48052E3
:101890003348FFF779FF04E0224639464846FFF710
:1018A00073FFA64200D110E008F101084FF0000AD2
:1018B000A1442744A6EB040086B2B6F5805F02DDA2
:1018C0004FF4805400E03446B4E700BFBDE8F08731
:1018D00010B5FFF7DBFEFFF721FF4FF000001A49BC
:1018E00008604FF0C700FFF79DFD4FF0010017495A
:1018F000C1F8B001FFF712FF10BD10B54FF00000A6
:10190000114908604FF0B900FFF78CFD4FF001005E
:101910000E49C1F8B0014FF0030001F054F810BDBA
:1019200010B54FF00000084908604FF0AB00FFF71A
:1019300079FD4FF001000549C1F8B0014FF00300F7
:1019400001F041F810BD0000B08121420080214229
:10195000000C014000140140002001401E00002046
:101960007A0000204FF0000100BF1BE010F0800F54
:1019700004D04FF00102FB4B1A6003E04FF000026D
:10198000F84B1A604FEA40624FEA12604FF00002D3
:10199000F54B1A604FF00102F44BC3F8842101F1BA
:1019A0000102D1B20829E1DB704770B506464FF05D
:1019B00000052C462046EC490860EC49C1F88C0132
:1019C000EB4908603046FFF7CDFF062000F0FBFF33
:1019D0002046E649C1F884014FF0010000F0F3FF12
:1019E0004FF00100E04908604FF00000DF49C1F806
:1019F000840100BF15E04FEA44404FEA10444FF025
:101A00000000D94908604FF00100D849C1F88401AD
:101A1000D848006810B104F1010084B205F101005A
:101A2000C5B2102DE7DB4FEA24144FF00100D04976
:101A30000860204670BD2DE9F04186B080464FF029
:101A400000073C4608E04046FFF7AFFF01A921F838
:101A5000140004F1010084B20A2CF4DB4FF00004FE
:101A60001EE004F1010085B215E001A830F8140071
:101A700001A931F8151088420ADD01A830F8146078
:101A800030F8150001A921F8140001A820F815600C
:101A900005F1010085B20A2DE7DB04F1010084B2F3
:101AA000092CDEDB4FF000074FF0020407E001A82D
:101AB00030F81400384487B204F1010084B2082CD5
:101AC000F5DB4FF0060097FBF0F086B2304606B02B
:101AD000BDE8F0812DE9F04104460D46A6480078A6
:101AE000FFF7A9FF0646A5480078FFF7A4FF0746C1
:101AF00026802F804FF00100BDE8F0817FB50446BD
:101B00000D4602A903A8FFF7E5FF064616B9002017
:101B100004B070BD694601A8FFF7DCFF06460EB9A8
:101B20000020F5E7BDF80400BDF80C10884206DC83
:101B3000BDF80C10BDF804001E3081420CDBBDF86E
:101B40000C00BDF80410884239DCBDF80410BDF863
:101B50000C001E30814232DABDF80000BDF80810DA
:101B6000884206DCBDF80810BDF800001E30814236
:101B70000CDBBDF80800BDF8001088421FDCBDF882
:101B80000010BDF808001E30814218DABDF80C10B4
:101B9000BDF8042001EB020000EBD071C1F34F014E
:101BA0002180BDF80810BDF8002001EB020000EB19
:101BB000D071C1F34F0129804FF00100A8E7002048
:101BC000A6E770B504460D4616466D480680A4F19A
:101BD0000C0188B22B4604F10D018AB22946FFF7A9
:101BE00061F8A5F10C0081B2193083B2224620467B
:101BF000FFF758F8681C81B2601C80B2FEF789FEBE
:101C0000611E88B2691C89B2FEF783FE681E81B22C
:101C1000601C80B2FEF77DFE6A1E91B2621E90B219
:101C2000FEF777FE062229462046FFF7BAF870BD78
:101C300070B504460D461646514806802946204692
:101C4000FEF767FE2946601C80B2FEF762FE681C44
:101C500081B22046FEF75DFE681C81B2601C80B236
:101C6000FEF757FE70BD2DE9F04104464548006877
:101C7000002855D124B14449881EFFF73FFF3CE0BE
:101C80004149881EFFF73AFFB8B33F491239B1F90D
:101C9000200002F075FC07463B491239088A02F021
:101CA00087FC8046384812388169404602F094FC2F
:101CB0000646394602F004FB054602F041FC324973
:101CC00012390882B1F9220002F05AFC07462E4967
:101CD0001239488A02F06CFC80462B481238C169E0
:101CE000404602F079FC0646394602F0E9FA05461C
:101CF00002F026FC24491239488223481238007D1C
:101D000010F0800F27D14FF0C0001F49A1F1120140
:101D100008750846008A88810846408AC8811AE00A
:101D200019481238007D10F0800F09D0164812387B
:101D3000007D20F080001449A1F1120108750AE02D
:101D40004FF000001049A1F112018881C8814FF6BF
:101D5000FF70088248820C481238007D00F0800035
:101D6000BDE8F0818C01224284012242000022421F
:101D70008001224208012242480000204900002040
:101D80001A000020280122423200002038B5F9490B
:101D90008869F94902F020FC044602F0B5FB009086
:101DA0000422F64801886846FFF735FDF149C86905
:101DB000F14902F011FC044602F0A6FB0090042257
:101DC000EE480188091D6846FFF725FD0222EB4811
:101DD00001880831E7482030FFF71DFD0222E7485F
:101DE00001880A31E3482230FFF715FD0122E3485C
:101DF00001880C31DF482430FFF70DFD4FF00A0059
:101E000000904FF00102DD48018801F10D016846A4
:101E1000FFF701FD38BD38B54FF0000000904FF0DE
:101E20000102D648018801F10D016846FFF74CFC1C
:101E300000980A284DD10422D04801886846FFF74F
:101E400043FC009802F09CFB0446CB4902F09AFA4E
:101E5000C84988610422C9480188091D6846FFF7FE
:101E600033FC009802F08CFB0446C34902F08AFA66
:101E7000C049C8610222C14801880831BD482030EC
:101E8000FFF722FC0222BD4801880A31B9482230FE
:101E9000FFF71AFC0122B94801880C31B5482430FB
:101EA000FFF712FCB34890F8240040B14FF09000C7
:101EB000B34908704FF0D000B249087007E04FF006
:101EC000D000AF4908704FF09000AE490870012073
:101ED00038BD0020FCE72DE9FC5F04460D4617469F
:101EE0001E46DDE90EABDDE90C894FF47840A649CA
:101EF0000880A6A04FF01001CDE90010A448438847
:101F000002884FF0A0014FF02800FFF79DF9A1A033
:101F10001021CDE900109E4843880288A021782036
:101F2000FFF792F99CA01021CDE900109848438852
:101F30000288B4212820FFF787F998A01021CDE965
:101F40000010934843880288B4217820FFF77CF979
:101F500093A01021CDE900108D4843880288C82144
:101F60002820FFF771F98FA01021CDE900108848D3
:101F700043880288C8217820FFF766F98AA01021DB
:101F8000CDE90010824843880288DC212820FFF731
:101F90005BF986A01021CDE900107D4843880288B6
:101FA000DC217820FFF750F981A01021CDE9001045
:101FB000774843880288F0212820FFF745F9102050
:101FC00004232246A02100904020FFF78AF8102029
:101FD00004232A46A02100909020FFF782F81020C9
:101FE00004233A46B42100904020FFF77AF81020ED
:101FF00004233246B42100909020FFF772F810209D
:1020000004234246C82100904020FFF76AF81020C0
:1020100004234A46C82100909020FFF762F8102060
:1020200004235246DC2100904020FFF75AF810208C
:1020300004235A46DC2100909020FFF752F810202C
:1020400000905348018803236020109AFFF749F855
:10205000BDE8FC9F00B595B04FF0000010900A90CD
:1020600010904FF01F00484908804FF6FF7052490A
:102070000880FEF75CFC4FF47840434908804FF637
:10208000FF70FEF754FC4FF000003F4908804B48BA
:1020900000684FF010014FF064034FF0A002CDE94B
:1020A00000104FF028010846FFF7CEF84FF47842B1
:1020B00014210846FFF785FD4FF000002D490875F3
:1020C0008861FEE32B484068099001200999884700
:1020D0002848007D00F0C00040284AD14FF00000A1
:1020E0000A902448007D20F04000224908750846E7
:1020F000018A11AA109822F820101E48418A1098CF
:1021000002EB80004180109800F10100C0B21090F5
:102110001098012806D0022815D0032850D0042892
:1021200010D168E04FF6FF7214210846FFF749FD11
:1021300017480088143880B24FF47842142109906F
:10214000FFF73FFDACE312480088143880B24FF629
:10215000FF7214210990FFF734FD0D4840881438B0
:1021600080B24FF47842014609901420FFF729FD10
:1021700096E396E32000002020BCBE4C4A000020DD
:1021800048000020490000201A00002078313A0061
:102190007000002079313A0078323A0079323A0002
:1021A00078333A0079333A0078343A0079343A0097
:1021B0006661632069733A001C0000204C00002017
:1021C000FF484088143880B24FF6FF7201460990EC
:1021D0001420FFF7F6FCFA484088143880B20990C2
:1021E000F7480088143880B24FF478420890099973
:1021F000FFF7E7FC54E3BDF84400BDF84810401A6F
:10220000099001D4099802E00998C0F100000D90EE
:10221000BDF8461011A8C088081A099001D4099881
:1022200002E00998C0F100000C900D9840430D9019
:102230000C9840430C90DDE90C100844059001F027
:1022400054FECDE9060101F0F1FDCDE9080101F0F0
:102250001FFE80B20F90BDF84C00BDF85010401A20
:10226000099001D4099802E00998C0F100000D908E
:1022700011A84189C089081A099001D4099802E07F
:102280000998C0F100000C900D9840430D900C98F7
:1022900040430C90DDE90C100844059001F025FE48
:1022A000CDE9060101F0C2FDCDE9080101F0F0FD24
:1022B00080B20E900E9802F07BF909900F9802F010
:1022C00077F90890099902F05DF80B900B9801F0EE
:1022D000CBFFBC4ABC4BCDE9080101F019FE0DD380
:1022E0000B9801F0C1FFB94AB94BCDE9080101F0E3
:1022F0009FFE03D30F9808B10E98F0BB4FF000007B
:102300001090AF484088A0F1140080B20990AC480A
:102310000088A0F1140080B24FF6FF72089009996E
:10232000FFF74FFC4FF4784214210846FFF749FCB1
:10233000A8490B9802F050F9089002F001F980B218
:1023400011A90990C989BDF8502011AB5B89CDE96D
:102350000132CDE90310BDF84C00009011A8C088EF
:102360000890BDF848000790BDF846000690BDF8FB
:102370004400059006A90EC900E002E0FFF7ABFD9E
:102380009FE2BDF84400BDF84C10401A099001D4FA
:10239000099802E00998C0F100000D90BDF84610C0
:1023A00011A84089081A099001D4099802E00998F7
:1023B000C0F100000C900D9840430D900C984043E4
:1023C0000C90DDE90C100844059001F08EFDCDE97C
:1023D000060101F02BFDCDE9080101F059FD80B2A5
:1023E0000F90BDF84800BDF85010401A099001D474
:1023F000099802E00998C0F100000D9011A8C18869
:10240000C089081A099001D4099802E00998C0F11E
:1024100000000C900D9840430D900C9840430C9098
:10242000DDE90C100844059001F05FFDCDE90601DF
:1024300001F0FCFCCDE9080101F02AFD80B20E900C
:102440000E9802F0B5F809900F9802F0B1F80890D4
:10245000099901F097FF0B900B9801F005FF594A7D
:10246000594BCDE9080101F053FD09D30B9801F058
:10247000FBFE564A564BCDE9080101F0D9FD41D289
:102480004FF0000010904E484088A0F1140080B238
:1024900009904B480088A0F1140080B24FF6FF72FB
:1024A00008900999FFF78DFB4FF4784214210846F4
:1024B000FFF787FB47490B9802F08EF8089002F06F
:1024C0003FF880B20146099011A8C289BDF85000BA
:1024D00011AB5B89CDE90130CDE90321BDF84C009A
:1024E000009011A8C0880890BDF848000790BDF87A
:1024F00046000690BDF84400059006A90EC9FFF7F6
:10250000EAFCDEE1BDF84800BDF84C10401A099025
:1025100001D4099802E00998C0F100000D9011A8BB
:10252000C1884089081A099001D4099802E00998E5
:10253000C0F100000C900D9840430D900C98404362
:102540000C90DDE90C100844059001F0CEFCCDE9BB
:10255000060101F06BFCCDE9080101F099FC80B2A5
:102560000F90BDF84400BDF85010401A099001D4F6
:10257000099802E00998C0F100000D90BDF84610DE
:1025800011A8C089081A099001D4099802E0099895
:10259000C0F100000C900D9840430D900C98404302
:1025A0000C90DDE90C100844059001F09EFCCDE98B
:1025B000060101F03BFCCDE9080101F069FC0BE0EC
:1025C00070000020CDCCCCCCCCCCEC3F9A99999922
:1025D0009999F13F0000C84280B20E900E9801F028
:1025E000E7FF09900F9801F0E3FF0890099901F0C7
:1025F000C9FE0B900B9801F037FED14AD14BCDE9C3
:10260000080101F085FC09D30B9801F02DFECE4A9C
:10261000CE4BCDE9080101F00BFD41D24FF0000097
:102620001090CB484088A0F1140080B20990C848AF
:102630000088A0F1140080B24FF6FF72089009994B
:10264000FFF7BFFA4FF4784214210846FFF7B9FAB2
:10265000C0490B9801F0C0FF089001F071FF80B2F3
:102660000146099011A8C289BDF8500011AB5B89E1
:10267000CDE90130CDE90321BDF84C00009011A84F
:10268000C0880890BDF848000790BDF84600069045
:10269000BDF84400059006A90EC9FFF71CFC10E127
:1026A000BDF84800BDF84410401A079001F068FFDB
:1026B0000990A74800882838079001F061FF08902A
:1026C000099901F05FFEA4498861BDF84800BDF892
:1026D00044100844049001F053FF05909E4880691F
:1026E00001460490059801F077FF0790984800880C
:1026F000059001F05DFF0690079902F041F84FF058
:102700008041089001F03EFE099001F0FDFE00B20C
:102710009149088411A84089BDF84610401A0790D5
:1027200001F02EFF09908A4840882838079001F070
:1027300027FF0890099901F025FE8749C86111A873
:102740004089BDF846100844049001F019FF059037
:102750008148C06901460490059801F03DFF07904B
:102760007B484088059001F023FF0690079902F00E
:1027700007F84FF08041089001F004FE099001F045
:10278000C3FE00B27449488408468069079001F08E
:10279000BBFE0890002801DB089801E00898404241
:1027A00002280DDC6C48C069079001F0ADFE09906D
:1027B000002801DB099801E00998404202284BDD1E
:1027C0004FF00000109062484088A0F1140080B2E1
:1027D00009905F480088A0F1140080B24FF6FF72A4
:1027E00008900999FFF7EDF94FF478421421084653
:1027F000FFF7E7F959A01021CDE9001054484088AF
:10280000099053480088089002461A212820099B05
:10281000FEF71AFD504890F8240010B94FF001005F
:1028200001E04FF000004C4981F82400084690F880
:10283000240040B14FF090004D4908704FF0D00097
:102840004C49087007E04FF0D000494908704FF03C
:1028500090004849087034E04FF01F004649088056
:102860004FF6FF70FEF763F844A01021CDE9001089
:1028700037484088099036480088089002466E2103
:102880002320099BFEF7E0FC4FF47A7000F0C1F8BA
:10289000FFF77CFA4FF6FF70FEF749F815B000BD60
:1028A00000BF0A2000F0B5F80A9800F1010080B2DC
:1028B0000A900A98B0F57A7F02DDFFF7ACFA02E0E1
:1028C00000BFFFF7FFBB00BF00BFE7E708B501216E
:1028D000102000F051FD4FF00B00ADF800004FF05C
:1028E00003008DF802004FF010008DF803006946D8
:1028F000284800F037FA40F20440ADF800004FF0ED
:1029000003008DF802004FF048008DF8030069467F
:10291000204800F027FA4FF028001F4908800E4990
:1029200001F11201A1F10200FFF7D4F8FFF773FAE9
:1029300008B1002008BDFFF76EFA0120FAE7000099
:10294000CDCCCCCCCCCCEC3F9A9999999999F13FCC
:10295000700000200000C842200000205450204E8B
:1029600065656420726561646A7573742100000096
:1029700048000020490000201A000020546F7563B1
:10298000682053637265656E2041646A75737420B4
:102990004F4B2100001001404A00002010B56FF09D
:1029A000040001F0D8F92E4800682E49B0FBF1F080
:1029B0002D490870084600784FF47A7100FB01F049
:1029C0002A49088010BD0146274A127801FB02F20D
:1029D0004FF0E0235A614FF000029A611A461269E3
:1029E00042F001021A6100BF4FF0E022106910F0BE
:1029F000010F02D010F4803FF6D04FF0E0221269B0
:102A000022F001024FF0E0231A614FF000029A61B8
:102A100070470146154A128801FB02F24FF0E0238D
:102A20005A614FF000029A611A46126942F001029F
:102A30001A6100BF4FF0E022106910F0010F02D0C0
:102A400010F4803FF6D04FF0E022126922F001022C
:102A50004FF0E0231A614FF000029A6170470000C6
:102A60000400002000127A005000002052000020D4
:102A700010B54FF4A06001F011F910BD10B50A4671
:102A800003464FEAE07400EB14544FEA243404F197
:102A9000300414704FEAE07400EB14544FEA24340D
:102AA000A0EB0434A1B20B464FEAE17401EB1464CD
:102AB0004FEA242404F13004547003464FEAE074D2
:102AC00000EB14644FEA2424A0EB0424A1B20B46CB
:102AD0004FEAE17401EB14744FEA241404F130045A
:102AE000947003464FEAE07400EB14744FEA241428
:102AF000A0EB0414A1B201F13003D3704FF0200316
:102B0000137110BD014600BF704700BF504A1288C4
:102B100012F0400FFAD0C2B24E4B1A80704710B577
:102B200086B004464FF0010144F2040000F024FC9A
:102B3000474800F05FFE4FF40070ADF814004FF00E
:102B400003008DF816004FF018008DF8170005A946
:102B5000414800F007F94FF48060ADF814004FF0E1
:102B600004008DF8170005A93B4800F0FBF84FF072
:102B700025008DF800004FF003008DF801008DF85E
:102B800002004FF001008DF80300684601F08CF858
:102B900001944FF00000ADF80800ADF80A00ADF860
:102BA0000C00ADF810004FF00C00ADF80E0001A9BC
:102BB000274800F062FE012240F22551244800F02F
:102BC00013FF0121224800F002FF06B010BD10B52E
:102BD00040F225511E4801F018F818B31C4800F0C7
:102BE0007DFFC4B21D48008810F4004F2ED11B4851
:102BF000008810F4804F0DD00A2C04D04FF0000054
:102C00001649088022E01548008840F40040134926
:102C100008801BE00D2C06D11048008840F480404D
:102C20000E49088012E00D480088C0F30D000C49E1
:102C30000C540A48008800F1010008490880084641
:102C40000088C72802DD4FF00000088010BD00009A
:102C500000380140043801400008014054000020C1
:102C60007A1000200948804709480047FEE7FEE740
:102C7000FEE7FEE7FEE7FEE7FEE7FEE7FEE7FEE72C
:102C800004480549054A064B70470000A1050008A5
:102C900031010008A8110020A8170020A813002067
:102CA000A813002010B50446DE48844208D1012153
:102CB000042000F07FFB0021042000F07BFB46E0B5
:102CC000D948844208D10121082000F073FB00217B
:102CD000082000F06FFB3AE0D448844208D101217B
:102CE000102000F067FB0021102000F063FB2EE0B5
:102CF000CF48844208D10121202000F05BFB002155
:102D0000202000F057FB22E0CA48844208D101216C
:102D1000402000F04FFB0021402000F04BFB16E06C
:102D2000C548844208D10121802000F043FB0021E6
:102D3000802000F03FFB0AE0C048844207D1012117
:102D4000801500F037FB0021A01500F033FB10BD0B
:102D500010B50121084600F02DFB0021012000F0F4
:102D600029FB10BD2DE9F04102464FF000052E462B
:102D7000284603460446074691F803C00CF00F05A9
:102D800091F803C01CF0100F03D091F802C04CEA78
:102D90000505B1F800C01CF0FF0F35D014684FF0E6
:102DA00000002EE04FF0010C0CFA00F3B1F800C067
:102DB0000CEA03069E4222D14FEA80034FF00F0C2B
:102DC0000CFA03F724EA070405FA03FC4CEA0404AE
:102DD00091F803C0BCF1280F06D14FF0010C0CFA9A
:102DE00000FCC2F814C00AE091F803C0BCF1480F1F
:102DF00005D14FF0010C0CFA00FCC2F810C000F134
:102E000001000828CED31460B1F800C0BCF1FF0F58
:102E100038DD54684FF0000031E000F1080C4FF04D
:102E2000010808FA0CF3B1F800C00CEA03069E4250
:102E300023D14FEA80034FF00F0C0CFA03F724EA7A
:102E4000070405FA03FC4CEA040491F803C0BCF142
:102E5000280F05D100F1080C08FA0CF8C2F814800C
:102E600091F803C0BCF1480F07D100F1080C4FF0F6
:102E7000010808FA0CF8C2F8108000F101000828D7
:102E8000CBD35460BDE8F0814FF6FF7101804FF065
:102E9000020181704FF00401C170704702464FF08B
:102EA000000093680B4202D04FF0010001E04FF0A8
:102EB000000070470146886880B2704702464FF0B4
:102EC0000000D3680B4202D04FF0010001E04FF048
:102ED000000070470146C86880B2704701617047C2
:102EE000416170470AB1016100E041617047C16012
:102EF00070474FF4803242EA01028261816182614F
:102F000082698269704702464FF000004C4B186896
:102F10004FF6807300EA030040EA021040EA010025
:102F2000474B186070474749C8617047F0B50A467B
:102F30004FF000031C4619460D4600F00046B6F15E
:102F4000004F02D13E4EF16901E03D4E7168C0F381
:102F5000034583B200F44016B6F5401F08D121F0B6
:102F60007061374E766826F07066354F7E6017E0E8
:102F700000F48016B6F5801F08D14FF0030606FA5C
:102F800005F421EA040141F0706109E04FEA50566E
:102F90004FEA061603FA06F621EA060141F07061CF
:102FA0003AB14FEA50564FEA061603FA06F646EAD9
:102FB000010100F00046B6F1004F02D1204EF16150
:102FC00001E01F4E7160F0BD30B54FF000024FEAD6
:102FD00081734FEA13744FF00F0303FA04F21A4B94
:102FE0004FEAA10453F8243023EA0203164C4FEAB7
:102FF000A10544F8253023464FEAA10453F82430B4
:103000004FEA81744FEA147400FA04F443EA0403AB
:103010000D4C4FEAA10544F8253030BD0B4908603E
:103020007047000000080140000C01400010014002
:103030000014014000180140001C01400020014024
:10304000000001400000204208000140DC00204256
:10305000F748006840F00100F549086008464068FC
:10306000F44900EA0100F249486008460068F24964
:1030700000EA0100EE4908600846006820F480205C
:1030800008600846406820F4FE0048604FF41F00C6
:1030900088607047E649096821F48031E44A11608C
:1030A0001146096821F480211160B0F5803F03D0FA
:1030B000B0F5802F0ED106E0DD49096841F480317A
:1030C000DB4A116007E0DA49096841F4A021D84AD7
:1030D000116000E000BF00BF704710B501464FF01F
:1030E0000002134610464FEA6112012A02D1D04C69
:1030F000236806E0022A02D1CD4C236A01E0CC4CC1
:10310000636A01F01F024FF0010404FA02F41C424A
:1031100002D04FF0010001E04FF0000010BD70B58B
:103120004FF000042546264600BF3120FFF7D5FFAB
:10313000064604F10104B4F5A06F01D0002EF4D0CE
:103140003120FFF7CAFF10B14FF0010501E04FF049
:103150000005284670BD01464FF00000B44A1068D3
:1031600020F0F80040EAC10010607047B3490860E1
:10317000704702464FF00000AD4B586820F47C10B9
:1031800042EA010343EA0000A94B58607047AB498B
:103190000866704701464FF00000A54A506820F0CD
:1031A000030040EA010050607047A148406800F009
:1031B0000C00704701464FF000009D4A506820F017
:1031C000F00040EA01005060704701464FF00000F7
:1031D000974A506820F4E06040EA01005060704770
:1031E00001464FF00000924A506820F4605040EAD7
:1031F000C1005060704731B18D4A527A42EA0002F4
:103200008B4B5A7208E08A4A527A6FEA0003DBB2AB
:1032100002EA0302864B5A72704789490860704778
:1032200001464FF00000824A506820F4404040EAD6
:103230000100506070474FF00001824A11707C4AD3
:1032400082F82010012802D004280AD104E04FF0AF
:1032500001017C4A117005E04FF00501794A1170B7
:1032600000E000BF00BF70477749086070477049B1
:10327000096A41EA00016E4A1162704773490860A9
:10328000704730B54FF000010A460C460B46684DBA
:103290006D6805F00C0121B1042905D0082927D15A
:1032A00005E06B4D056026E0694D056023E0604D4B
:1032B0006D6805F470125E4D6D6805F480344FF052
:1032C000020505EB924224B9624D02FB05F505604B
:1032D0000DE0574D6D6815F4003F04D05D4D02FBC5
:1032E00005F5056003E05A4D02FB05F5056002E0B7
:1032F000574D056000BF00BF4D4D6D6805F0F001F2
:103300004FEA1111544D6B5C056825FA03F54560D1
:10331000474D6D6805F4E0614FEA11214E4D6B5C3D
:10332000456825FA03F58560414D6D6805F46051E7
:103330004FEAD121484D6B5C456825FA03F5C5601D
:103340003B4D6D6805F440414FEA9131434D6B5C54
:10335000C568B5FBF3F5056130BD31B1344A52693A
:1033600042EA0002324B5A6105E0314A526922EAD0
:1033700000022F4B5A61704731B12D4A926942EADF
:1033800000022B4B9A6105E0294A926922EA000269
:10339000274B9A61704731B1254AD26942EA00024F
:1033A000234BDA6105E0224AD26922EA0002204B6F
:1033B000DA61704731B11E4AD26842EA00021C4B02
:1033C000DA6005E01A4AD26822EA0002184BDA6095
:1033D000704731B1164A126942EA0002144B1A6171
:1033E00005E0134A126922EA0002114B1A61704784
:1033F0001B49086070471149C86470470C49C8717F
:1034000070470B48406A40F0807009494862704735
:1034100001464FF00000064A92680A4202D04FF07F
:10342000010001E04FF000007047014988727047C9
:10343000001002400000FFF8FFFFF6FE00004242CD
:10344000D800424220100240800442423C044242E2
:1034500000127A0000093D005C0000206C00002092
:103460004004424210B50446DF48844208D101219D
:103470008014FFF79FFF0021A014FFF79BFF16E0C9
:10348000DA48844208D101210014FFF7A2FF00218D
:103490002014FFF79EFF0AE0D548844207D101219E
:1034A000C013FFF796FF0021E013FFF792FF10BD56
:1034B00010B54FF00002028802F441520B884C888C
:1034C00043EA04038C8843EA0403CC8843EA0403F8
:1034D0000C8943EA04034C8943EA04038C8943EAD8
:1034E0000403CC8943EA040343EA02020280838B8B
:1034F0004FF2FF7403EA040383830B8A038210BD37
:103500002DE9F04F85B005460C464FF000094FF00D
:1035100002074FF000084FF0010B4FF00006B246D3
:10352000A88B4FF2400100EA0100A8834FF002008F
:103530002884B5F81C90A068022801D100BF3BE0A8
:10354000A08810B94FF0010B01E04FF0020BA74823
:10355000854200D100E000BF6846FFF792FEDDF82B
:1035600000A0E088B0F5007F0CD14FEA1A2000EBF4
:1035700080004FEA4000A168B0FBF1F000F10500C7
:1035800086B20DE04FEA4B10BAFBF0F000EB800082
:103590004FEA4000A168B0FBF1F000F1050086B2EF
:1035A0004FF00A00B6FBF0F606F00108A6EB0800A3
:1035B000C0F34F074FEA0828022F01DBFF2F03DD7E
:1035C0004FF002074FF00008E08840EA080040EAA8
:1035D00007002884A088A18940EA0100618840EAA8
:1035E0000100218840EA010040F4006040EA090936
:1035F000A5F81C9005B0BDE8F08F4FF000010180E8
:1036000041808180C180018141818181C1814FF0F0
:103610000701018270474FF00001018041808180E5
:10362000C1804FF0020181604FF00001818170473D
:1036300021B1028842F04002028005E002884FF684
:10364000BF7302EA03020280704721B1828B42F409
:103650008062828305E0828B4FF6FF3302EA030229
:103660008283704770B54FF0000423464FEA21145F
:103670004FF0010505FA04F5ABB222B1858845EAA1
:103680000305858006E085886FEA0306B6B205EA81
:103690000605858070BD10B522B1838843EA010319
:1036A000838006E083886FEA0104A4B203EA04037E
:1036B000838010BD81817047014688897047A1F5DC
:1036C0007E42FF3A04D0028842F48072028005E014
:1036D00002884FF6FF6302EA03020280704721B1BD
:1036E000828842F00402828005E082884FF6FB73F4
:1036F00002EA03028280704702884FF2FF7302EAF7
:1037000003020280028842EA0102028070470188B7
:1037100041F480510180704721B1028842F4005287
:10372000028005E002884DF6FF7302EA0302028080
:10373000704702464FF00000012901D0108B00E0D5
:10374000908A70470146088A7047B1F5804F04D1CE
:10375000028842F48042028005E002884BF6FF7343
:1037600002EA03020280704702464FF0000013890C
:103770000B4202D04FF0010001E04FF00000704713
:103780006FEA010202817047F0B502464FF0000077
:1037900004460346054601F00F074FF0010606FAFE
:1037A00007F6B4B24FEA21134FF0010606FA03F60A
:1037B000B3B2968806EA03051689264203D015B1EE
:1037C0004FF0010001E04FF00000F0BD10B54FF0E8
:1037D000000201F00F044FF0010303FA04F39AB260
:1037E0006FEA0203038110BD003001400038004041
:1037F000003C004010B50446F848844209D101213C
:103800008803FFF7D7FD00214FF48040FFF7D2FD7A
:1038100032E0F348844209D101214804FFF7D9FD81
:1038200000214FF40030FFF7D4FD25E0ED4884423D
:1038300009D101218804FFF7CCFD00214FF480203D
:10384000FFF7C7FD18E0E848844209D10121C80408
:10385000FFF7BFFD00214FF40020FFF7BAFD0BE09A
:10386000E248844208D101210805FFF7B2FD00219A
:103870004FF48010FFF7ADFD10BD2DE9F04786B085
:1038800005460E464FF00004A24600BFA14627465B
:10389000B08900B100BF2F462C8A4CF6FF7004EAB5
:1038A0000004F08840EA04042C82AC894EF6F31040
:1038B00004EA0004B088318940EA0100718940EAD5
:1038C000010040EA0404AC81AC8A4FF6FF4004EAF0
:1038D0000004B08940EA0404AC8201A8FFF7D1FCDF
:1038E000BE48874202D1DDF810A001E0DDF80CA04F
:1038F000A88910F4004F09D00AEBCA0000EB0A10A7
:1039000031684FEA4101B0FBF1F808E00AEBCA0068
:1039100000EB0A1031684FEA8101B0FBF1F84FF07B
:103920006400B8FBF0F04FEA00144FEA14104FF0B7
:10393000640101FB1089A88910F4004F0AD04FF0F0
:10394000320000EBC900B0FBF1F000F0070040EAE4
:1039500004040BE04FF0320000EB09104FF064015B
:10396000B0FBF1F000F00F0040EA04042C8106B037
:10397000BDE8F0874FF4165101604FF000018180DF
:10398000C18001814FF00C0141814FF00001818124
:10399000704710B502464FF00000108A4FF2FF0347
:1039A00000EA03000B884C8843EA04038C8843EA4E
:1039B0000403CC8843EA040343EA0000108210BDEC
:1039C0004FF00001018041808180C180704721B1AA
:1039D000828942F40052828105E082894DF6FF73AC
:1039E00002EA030282817047F0B503464FF00004FB
:1039F000264625462046A1F510676A3F00D100BF44
:103A00001846C1F3421401F01F064FF0010707FAF0
:103A100006F5012C02D100F10C0006E0022C02D1C7
:103A200000F1100001E000F1140022B1076847EA3C
:103A30000507076003E0076827EA05070760F0BD90
:103A400010B522B1838A43EA0103838206E0838AA8
:103A50006FEA0104A4B203EA0403838210BD028A60
:103A60004FF6F07302EA03020282028A42EA01027E
:103A70000282704782894FF2FF7302EA0302828159
:103A8000828942EA01028281704721B1828942F033
:103A90000202828105E082894FF6FD7302EA030289
:103AA00082817047028A4FF6DF7302EA03020282C4
:103AB000028A42EA01020282704721B1028A42F47C
:103AC0008042028205E0028A4BF6FF7302EA03029B
:103AD00002827047C1F308028280704701468888DD
:103AE000C0F308007047818941F00101818170476E
:103AF000028BD2B20283028B42EA01220283704718
:103B0000028B02F47F420283028B42EA01020283AB
:103B1000704721B1828A42F02002828205E0828AC7
:103B20004FF6DF7302EA03028282704721B1828A74
:103B300042F01002828205E0828A4FF6EF7302EAB9
:103B400003028282704721B1828A42F00802828297
:103B500005E0828A4FF6F77302EA03028282704719
:103B600021B1828942F40042828103E08289C2F35A
:103B70000E028281704721B1828A42F40062828201
:103B800005E0828A4FF2FF7302EA030282827047E5
:103B9000828A4FF6FB7302EA03028282828A42EA39
:103BA00001028282704721B1828A42F0020282823F
:103BB00005E0828A4FF6FD7302EA030282827047B3
:103BC00002464FF00000B1F5007F00D100BF13881E
:103BD0000B420DD04FF001000CE000000038014016
:103BE0000044004000480040004C004000500040AD
:103BF0004FF00000704701F40072B2F5007F00D171
:103C000000BF6FEA01020280704770B502464FF0B4
:103C1000000423461D461846A1F510666A3E00D1F1
:103C200000BFC1F3421501F01F034FF0010606FA71
:103C300003F3012D03D1968906EA030308E0022D60
:103C400003D1168A06EA030302E0968A06EA030312
:103C50004FEA21244FF0010606FA04F4168806EA1A
:103C600004041BB114B14FF0010001E04FF000005B
:103C700070BD10B54FF000021346A1F510646A3C08
:103C800000D100BF4FEA21224FF0010404FA02F4F0
:103C9000A3B26FEA0304048010BD0000384940EA73
:103CA0000101384A1160704770B54FF000010B46B2
:103CB0004FF00F02C4784CB3324C246804F4E06433
:103CC000C4F5E0644FEA1421C1F1040322FA01F2C1
:103CD000447804FA03F1847804EA020444EA010116
:103CE0004FEA0111284C0678A155047804F01F050D
:103CF0004FF0010404FA05F405784FEA65154FF01A
:103D0000E02606EB8505C5F800410CE0047804F0D8
:103D10001F054FF0010404FA05F41C4D06784FEA24
:103D2000661645F8264070BD194A01EA020242EAC9
:103D30000002184B1A60704731B1174A126842EA04
:103D40000002154B1A6005E0134A126822EA0002CD
:103D5000114B1A607047042808D14FF0E02109691F
:103D600041F004014FF0E022116107E04FF0E02143
:103D7000096921F004014FF0E02211617047000051
:103D80000000FA050CED00E000E400E080E100E056
:103D900080FFFF1F08ED00E010ED00E07047704766
:103DA00070477047704710B500F008F8006810BD04
:103DB00010B5044600F002F8046010BD00487047DA
:103DC0004411002000487047441100207546FFF759
:103DD000F9FFAE4605006946534620F007008546C8
:103DE00018B020B5FEF74CFFBDE820404FF00006AC
:103DF0004FF000074FF000084FF0000B21F00701D3
:103E0000AC46ACE8C009ACE8C009ACE8C009ACE815
:103E1000C0098D4670470446AFF300802046FCF78A
:103E2000D0F9000000487047481100202DE9F0410A
:103E300006460F4600F032F90D46040018BF012077
:103E4000284320F00040C0F17F6010F1E0400FD522
:103E5000002E14BF01200020384320F00040C0F1A4
:103E60007F6000F1E0400028A4BF0120FFF7A0FF21
:103E700020462946BDE8F081491058BFC1F14041B4
:103E80005B1058BFC3F140438B42EFF30080704793
:103E90004FEA1153A3F58063D3F11E03A8BFD3F1FA
:103EA000200C08DB4FF0004242EAC12252EA505295
:103EB00032FA03F0704709420BD4102BC4BF002024
:103EC000704703F5787CBCF1FF3F05D04FF0FF3021
:103ED00070474FF00000704770B500F055F800BF14
:103EE0004992248000207047F0E7B0FA80F310FA7E
:103EF00003F10AD0C3F11D0303F580634FEA41507B
:103F00004FEA035202EBD12170474FF00000704797
:103F100051EA030C17D41CF5801F58BFBCF5801F55
:103F200000F10680994218BF704708BF9042704761
:103F300007D711F5801F58BF13F5801F19D4994278
:103F40007047894270471CF5801F08D5BCF5801F5B
:103F5000F7D58B4218BF704708BF824270474FF4B5
:103F6000001C1CEB410F38BF1CEB430F01D28B42EE
:103F7000704770B500F008F8922449004FF00051E6
:103F80004FF08053FFF778BF0EF1020E2EF0030EB4
:103F90005EF8046B364205D4012A43EB030515F5A0
:103FA000001F12D8012841EB010C1CF5001F0CD892
:103FB0000ED14FEAD17C15F5001F0CEB4C0C0CF127
:103FC000020C08BF4CEBD37C04E04FF0080C01E07E
:103FD0004FEAD37C0CEB4C0526FA05F606F00706F3
:103FE000B6F1040C06D20EEB860CBDE870404CF026
:103FF000010C6047DFE80CF0090B02024FF00041B2
:104000004FF00000A1F5002170BD194610460128AF
:1040100051EB010418BFD4F5001484BF002001F057
:10402000004170BD0808A0F500114FEA310170474A
:1040300053EA010C17D41CF5801F58BFBCF5801F34
:1040400000F106808B4218BF704708BF824270475C
:1040500007D713F5801F58BF11F5801F19D48B4265
:1040600070479B4270471CF5801F08D5BCF5801F28
:10407000F7D5994218BF704708BF904270474FF478
:10408000001C1CEB430F38BF1CEB410F01D29942BF
:1040900070470FB40CBC03BCFFF76BBF2DE9F041B8
:1040A00001F5801CBCF5001FC0F2C3804FEA115C13
:1040B00021EA0C510CF1FD0C41F480115FEA5C0C1B
:1040C0000CF5C07C01D3400049413DA4890241EA7E
:1040D000905187028E0E0A0CA45D04FB04F602FBCD
:1040E00006F6C6F14046A4FB0662F60D46EA4226F5
:1040F00006FB06F4A4FB01235242C3F1404338BF40
:104100005B1EA6FB02420024E6FB0324D20B42EA1C
:104110004446A6FB0623A1FB02E2A3FB07E4A41886
:104120004FF0000252F10002E3FB01426442C2F18F
:10413000404E38BFAEF1010EA6FB04234FF0000243
:10414000E6FB0E32A2FB03464FF00004B61954F111
:104150000004E2FB0264A1FB06E6A4FB07E816EB01
:1041600008064FF0000858F10008E4FB01687642A9
:10417000C8F1405838BFA8F10108A2FB06E4A3FB30
:1041800008E52D194FF0000454F10004E2FB085437
:10419000A1FB05E6A7FB04E818EB06084FF00006B4
:1041A00056F10006E1FB048618F1200556F10006E1
:1041B000A809A8F11B08B10908F03F08B8F10A0FD7
:1041C00040EA86601CD901EB0C51BDE8F08100BFCC
:1041D000FCF5EEE8E2DDD8D3CFCBC7C3C0BDB9B69E
:1041E000B4B1AEACA9A7A5A3A19F9D9B9A989695A3
:1041F0009392908F8D8C8B8988878685848382812A
:10420000A0FB006800FB01F208EB4208B8EB87282E
:1042100007D5341858EB0104D5D5401C51F10001E5
:10422000D1E7341A78EB0104CDD4401E71F10001BE
:10423000C9E75FEA4C0C5FEA9C5C0DD105D34FF0F7
:10424000000001F00041BDE8F081BDE8F04170B52B
:10425000FFF79AFE6DDBFFBEBDE8F0414FF00000B6
:10426000004970470000F87F43004FEAD30C4FEA43
:104270003C0C43401FBF40070CF1605113F0FE4F50
:1042800070471CF0006F03D100200CF00041704714
:104290000CF0004343EA507010B540EACC0000F047
:1042A0001CFA00BF000000924FEA0001FFF7BABEFF
:1042B0004FF000414FF00000A1F5002170470000D1
:1042C00090EA010F48BF81F0004100F16082421A7C
:1042D0003CBF801A89184FEAD0524FF07F4C1CEA3D
:1042E000410FA2EBD15318BF9CEA026F00F03B8054
:1042F0004FF0004C4CEA00204CEA012121FA03FC6B
:1043000010EB0C0C1ED202F1FF325FEA1C2040EBD6
:10431000C25038BF70471CF07F0F4FEA400C18BFE7
:10432000BCF17F4F38BF7047C3F12003994008BFED
:1043300020F00100BCF17F4F38BF7047A0F1C040B2
:1043400000F018BA4FEA3C00000A40EBC25028BF08
:104350001CF0FF0F4FEA400CE6D018BFBCF17F4FB6
:1043600038BF7047EAE79CEA026F05D010EA5C0F9D
:1043700008BF00F00040704710B500F0AEF900BF74
:1043800064FBBE3E4FF47F0C1CEAD0121EBF1CEA39
:10439000D11392EA0C0F93EA0C0F00F0858090EA9B
:1043A000010F48BF42F4807240F4000C41F4000059
:1043B0002CF07F4120F07F4000B58142A2EB030248
:1043C0000FF2081CACEB504EC0F100009EF800E06C
:1043D0004FEA4E0E00FB0EFC38BF49004FEA2C1C82
:1043E00002F5FA020CFB0EF34FEACE1E4FEA112C37
:1043F0004FEAC1210EEB635E42EB22420EFB0CFC46
:104400004FEA1C5300FB03114FEA112C4FEA013114
:104410000EFB0CFC4FEADC4C00FB0C11C14228BF28
:1044200009184CEB03335DF804EB10EB410143EB4F
:10443000C250B2F57C0F38BF704729D512F0F00F8B
:104440001CBF00F1C04000F0004070470081828333
:104450008485868788898B8C8D8E8F919293959693
:1044600097999A9C9D9FA0A2A3A5A7A8AAACAEB01D
:10447000B2B3B5B7B9BCBEC0C2C5C7C9CCCED1D422
:10448000D7D9DCDFE2E6E9ECF0F3F7FAFE00000052
:104490004FEA400C0CF1807CBCF17E4F28BF704786
:1044A000B0F1C04000F066B990EA010F0CEAD113F8
:1044B00048BF42F48072624538BF634507D213F4A7
:1044C0007F0F16D080EA010000F00040704710B561
:1044D00000F003F9097EFC3E00F005B880EA010017
:1044E00000F00040704780EA010000F0004000F05A
:1044F00041B912F47F0F04BF0248704780EA0100FF
:1045000000F038B90000C07F41000B0ED3F19E02CD
:1045100008D950F400034FEA032323FA02F048BFFE
:104520004042704710B500F0D8F800BF499224808F
:10453000002070476FF0004282EA200070470000C0
:10454000C10DD1F19E0206DB4FEA002343F0004388
:1045500023FA02F07047004207D54FEA4001B1F15B
:10456000FE4F02D24FF00000704710B500F0B5F8D2
:1045700049922480002070476FEA200070470000B5
:1045800010F0004148BF4042B0FA80F310FA03F245
:10459000C3F19D030BD051EAC35101EB1220530626
:1045A00038BF704700F1010008BF20F001007047DC
:1045B000B0FA80F310FA03F2C3F19D030AD0D905D3
:1045C00001EB1220530638BF704700F1010008BF0D
:1045D00020F00100704700004FF47F0C1CEAD0125D
:1045E0001EBF1CEAD11392EA0C0F93EA0C0F00F0E5
:1045F000478090EA010F48BF42F480724FF0004CB0
:104600004CEA00204CEA012102EB0302A0FB01135B
:10461000A2F50002002918BF43F001035B0028BF88
:104620004FEA330342EB22425FEA132C4CEBC250B9
:104630002EBFBCEB436FB2F57C0F70474FEA036CA3
:10464000BCF1004F08BF20F00100B2F57C0F38BF6D
:1046500070470BD582F0FF0212F5803FC8BF70474C
:1046600000F1C040D8BF00F00040704700F5000CDA
:104670005FEA4C0C48BF7047B0F1C04000F07AB818
:1046800090EA010F0CEAD11348BF42F480726245F0
:1046900038BF634504D280EA010000F00040704753
:1046A00010B500F01AF800BF8900013E00F007B80D
:1046B00000F009B85FEA410C5FEA1C6C08D080EAA0
:1046C000010000F057B85FEA400C5FEA1C6CF6D1BD
:1046D0004FF00040A0F5800070470EF1020E2EF062
:1046E000030E5EF8044B244204D44FEA4102B2F1B7
:1046F0007F4F11D84FEA4003B3F17F4F0CD80ED152
:104700004FEAD07CB2F17F4F0CEB4C0C0CF1020C59
:1047100008BF4CEBD17C04E04FF0080C01E04FEAFD
:10472000D17C0CEB4C0324FA03F404F00704B4F13D
:10473000040C06D20EEB840CBDE810404CF0010CCA
:104740006047DFE80CF0070802024FF00040A0F5D8
:10475000800010BD0846420018BFD2F1807288BFA9
:1047600000F0004010BD10B5FFF75CFB4FF00001FA
:10477000016010BDFF2141EAD050C0057047000024
:1047800090EA010F48BF81F000413FF5A0AD421A09
:1047900004D882F00042A0EB020011444FEAD0524C
:1047A0004FF07F4C1CEA410FA2EBD15318BF9CEA9B
:1047B000026F4AD04FF0004C4CEA00204CEA012135
:1047C00021FA03FCB0EB0C0C0FD412F0FE0F36D024
:1047D0005FEA4C001DD5001240EBC25038BF704755
:1047E0001CF03F0F18BF70470BE0A2F101025FEA17
:1047F0001C2040EBC25038BF70471CF07F0F18BF21
:104800007047C3F12003994014BF401E20F00100FF
:10481000704780084FEA122308BF7047B0FA80FC47
:10482000A2EB0C02CCF1280C60FA0CF093EA122FE8
:1048300004BF00EBC25070474FEAC3707047130AC1
:104840005FEADC1008BF7047F6E79CEA026F04D00D
:1048500010EA5C0F08BF0020704710B5FFF73DFF5E
:1048600040DFF63E81F0004070470000000000008D
:1048700000000040000030C00100E0E00100C0E1A5
:104880000000C061001880F1FF3F00700018003E7A
:10489000001804DA01181CEE0118386F601878F758
:1048A000FF1870318618B01906188009061880059F
:1048B0008619C0FEFF1BC000061AC0306618E070E3
:1048C000E6197C30E6187030E6186030E61870F8AB
:1048D000FF1C7030E01C7000001C7000F01F7000A6
:1048E000800F000000070000000000000000000032
:1048F000000000008000000EC00100FEFF03000E5B
:10490000C001000EC001000EC00100FEFF01000E3C
:10491000C001000EC001000EC00100FEFF01000E2C
:10492000C001000640000000000030700C18F0FFCD
:10493000FC3F70700C1870700C1870700C18707050
:104940000C18F07FFC1F70700C1870700C187070D1
:104950000C1870700C1870700C18F07FFC1F7070C1
:104960000C1810000400000000000000000000000F
:1049700000000000300000007000001C7000FC1FF0
:104980007000008C7100208C7700E08C7304F08E36
:10499000731E708EF31F708EFB0C708E7F0C70FE7A
:1049A000730C3086730C3086730C3096730CF8BF22
:1049B000730C38F8730C00B8730C00B8F30F00BE1A
:1049C0007306E09B73307E9873301C981330089CFC
:1049D0000330009C0330008C0378E00FFF7F8007DA
:1049E0000000000300000000000080008000800044
:1049F000FC1F40004000FF7F20001000F00F000867
:104A000000046002800100020004000104020800AA
:104A1000E83F0102020202020802C83F0402070244
:104A2000040204020402F47F00000000F80F0808EA
:104A30000808F80F08080808F80F2002222224228C
:104A40002812280A2002FF7F00000000FC1F00003F
:104A5000000000000000FF7F8000800088088810B0
:104A6000842082408140A0004000400080008000FF
:104A7000FF7F200020002000E00F200820082008F1
:104A8000100810080808040502028000FE3F0220FA
:104A90002000FF7F10047802C0033C1C8000FF7FD1
:104AA000A00290048C1883608000FFFFFFFFFFFFCF
:104AB000FFFFFFFFFFFFFFFFFFFFFFFFFFFFFFFF06
:104AC000FFFFFFFFFFFFBEF77DEFBAD6B6B5F39C41
:104AD000B294B39CB29434A5F7BDFBDE7DEFFFFF2B
:104AE000FFFFFFFFFFFFFFFFFFFFFFFFFFFFFFFFD6
:104AF000FFFFFFFFFFFFFFFFFFFFFFFFFFFFFFFFC6
:104B0000FFFFFFFFFFFFFFFFFFFFFFFFFFFFFFFFB5
:104B1000FFFFBEF7FBDEF39CCB5AC739042182109E
:104B200042104210410883184529C7390C6375ADFE
:104B30003CE7BEF7FFFFFFFFFFFFFFFFFFFFFFFFA9
:104B4000FFFFFFFFFFFFFFFFFFFFFFFFFFFFFFFF75
:104B5000FFFFFFFFFFFFFFFFFFFFFFFFFFFFFFFF65
:104B60003CE7B2940842C3188210042145298631DB
:104B70008631863186314529042182104108C318C7
:104B80000842F39C3CE7FFFFFFFFFFFFFFFFFFFF33
:104B9000FFFFFFFFFFFFFFFFFFFFFFFFFFFFFFFF25
:104BA000FFFFFFFFFFFFFFFFFFFFFFFFFFFFFBDE3A
:104BB0000C63C318C3184529C73908420842084284
:104BC000084208420842C739C73986318631042174
:104BD00041088210CB5ABAD6FFFFFFFFFFFFFFFF4D
:104BE000FFFFFFFFFFFFFFFFFFFFFFFFFFFFFFFFD5
:104BF000FFFFFFFFFFFFFFFFFFFFFFFFFBDECB5AC3
:104C000082104529C73908420842094A494A494A97
:104C1000494A494A494A0842C739C739C7398631DA
:104C2000452983180000C84138C6FFFFFFFFFFFF7A
:104C3000FFFFFFFFFFFFFFFFFFFFFFFFFFFFFFFF84
:104C4000FFFFFFFFFFFFFFFFFFFF7DEF8E7382106F
:104C50004529C7390842094A8A523084CF7B8A5293
:104C6000494A4A52494ACB5ACF7B0C630842C7395A
:104C700086314529C3180000494ABAD6FFFFFFFF15
:104C8000FFFFFFFFFFFFFFFFFFFFFFFFFFFFFFFF34
:104C9000FFFFFFFFFFFFFFFFFFFFF39CC31804218F
:104CA000C7390842494A494A72947DEF7DEFB29470
:104CB0004A52494A8A5275ADBEF7BAD64D6BC739CA
:104CC000C73986314529C3184108CF7B7CE7FFFFF0
:104CD000FFFFFFFFFFFFFFFFFFFFFFFFFFFFFFFFE4
:104CE000FFFFFFFFFFFFFFFFBAD608428210C73960
:104CF0000842494A494A8E73FBDEFFFFBEF7BAD627
:104D00008E73084230843CE77DEFFFFFB6B5494A19
:104D1000C73986314529042141084529B6B5FFFF29
:104D2000FFFFFFFFFFFFFFFFFFFFFFFFFFFFFFFF93
:104D3000FFFFFFFFFFFFBEF7718C410845290842C6
:104D4000494A494A4A52B294BEF7BEF7B294CF7B61
:104D5000CF7B494AB6B5F39C0C6338C6BAD60C6310
:104D60008739C73986314529C318410830847DEF1A
:104D7000FFFFFFFFFFFFFFFFFFFFFFFFFFFFFFFF43
:104D8000FFFFFFFFFFFF3CE7CB5A4108C73908424E
:104D9000494A4A528A52F39CFFFF7DEFC739C31834
:104DA0000C63CB5AB6B5B294CB5A75ADFAD64D6BEF
:104DB0008739C73986314529042141088A5279CE7D
:104DC000FFFFFFFFFFFFFFFFFFFFFFFFFFFFFFFFF3
:104DD000FFFFFFFFFFFF38C686310421C841494A63
:104DE000494A4A52494AB18CBEF7BEF7B294CF7BCA
:104DF000CF7B494A74A57DEF7CE7BEF779CE0C6383
:104E0000C739C7398631452904218210452975AD36
:104E1000BEF7FFFFFFFFFFFFFFFFFFFFFFFFFFFFEB
:104E2000FFFFFFFFFFFF34A5821086310842494A89
:104E3000494A8A52494A4D6BBAD6FFFFFFFF79CEE5
:104E40000D63C739CF7B7DEFFFFFFFFF75AD0842D4
:104E50008631C739863145294529C318C318B2940C
:104E60007DEFFFFFFFFFFFFFFFFFFFFFFFFFFFFFE4
:104E7000FFFFFFFFBEF7B28C4108C7390842494A1D
:104E8000494A8A528A524A4AD07B7AC67BBE906B84
:104E9000C9398831C939B384BBC6F8B5CC5A863113
:104EA000C739C739863145294529C420410830848E
:104EB0003CE7FFFFFFFFFFFFFFFFFFFFFFFFFFFFDD
:104EC000FFFFFFFF3CE78A4AC310C7390842494A3F
:104ED000494A4A4A4A42093A084A096B497BC67A12
:104EE00005834683C57AC672097B485A8731882173
:104EF00088298631863145294529042141084A4AB5
:104F0000BAD6FFFFFFFFFFFFFFFFFFFFFFFFFFFF1F
:104F1000FFFFFFFFF7C582500541C7290842494AF4
:104F20004A42494A097B889BC6B321D4A0DCE1E40C
:104F300061ED61ED21EDA0E420DC80CB43ABC482C8
:104F4000065A472146294529042904198210821846
:104F5000F39C7DEFFFFFFFFFFFFFFFFFFFFFFFFF62
:104F6000FFFF7DEF4D9300A082B8C7310932494A57
:104F7000867A43C36BEDF4F6EBFD20FD20FD60FD6A
:104F8000A0FDA0FD60FD60FD20FDE0FCA0FC60F444
:104F9000C1DB839AC54945290419C42082380050D1
:104FA000CB6ABAD6FFFFFFFFFFFFFFFFFFFFFFFF48
:104FB000FFFFFBEE04A100C000F0C3A0C8414942BE
:104FC000059B20FCA4FC69FDE8FD63FD20FD60FD60
:104FD00060FD60FD20FD20FDE0FCE0FCA0FC60FC2D
:104FE00020FC41D3C5494519C43882684188007006
:104FF000495A79CEFFFFFFFFFFFFFFFFFFFFFFFFD3
:10500000FFFFFBF682C000D086C146F141C845795A
:1050100089528862866AC67AC4BBE1FC60FD60FD85
:10502000A0FDA0FD60FD60FDE0FC60E403938472E0
:10503000446AC5414529C35841A8409800B0006062
:105040000C6B79CEFFFFFFFFFFFFFFFFFFFFFFFFAE
:105050007DEFCE83828800F8C4D80CF38AFA82E808
:1050600082B04569C7510842083A865A839BA2BC60
:1050700022CD21CDA1C422B4C47A063A862945297D
:105080000531C450419000C000A800A000A8003025
:105090004A4ABAD6FFFFFFFFFFFFFFFFFFFF7DEF8A
:1050A0008E73C318053982A800F8C3F84DFB4DFB79
:1050B000C7F9C3F082D8C3B004814561465186491F
:1050C0008649464145414541454105490461829033
:1050D00041B000D000C800A800A800B84158821014
:1050E0008210B294BEF7FFFFFFFFFFFFBEF7CF7B3A
:1050F0008210042186298641049940E841F886F906
:10510000CBFA49FA82F800F800F000E841D841D023
:1051100041C041C041C041C041C800D000E000E0F2
:1051200000D800D000B800A84188824882108210C0
:105130000000452979CEFFFFFFFFBEF7F39C8210E8
:10514000C31845298631C731307CF3DC86E100F095
:1051500000F841F841F800F800F800F800F800F80D
:1051600000F800F800F800F800F800E800E000E0BF
:1051700000D800C841A08A9A0C63041182108210E2
:10518000410800004D6B7DEFFFFFFBDE084242103F
:10519000452986318631494A38BEFFFF38D686A96F
:1051A00000C800E000F000F800F800F800F800F88F
:1051B00000F800F800F800F000F000E800E000D08F
:1051C000C3988A8AB2A4BAC6F7B5084241088210C9
:1051D000410800004529F7BDFFFF718C41080421FB
:1051E0004529863186310C633CE7FFFF79D646B905
:1051F00000E042C882A882B041D882E882F041E84B
:1052000041E841E841F041E841D804C108924D8BA2
:1052100034A5FBC6FBD6BACE3CE73084C3184108A0
:10522000410800004108CF7B7DEF494A000004217E
:105230004529463186313084FFFFFFF7F7DD09DA73
:1052400083F801F042C08298499AF3B4F3CC71BC60
:105250008EBB8EBB30BC71BCF3BCB6BDFBCEBEE713
:105260007DE73BDFBAD679CEFBDE75AD86314108EE
:10527000410800000000494AFBDE042141080421E6
:10528000452945298739B294FFFFBEF734DD0CEB81
:1052900009FA00F001D800D88BD27DE7FFFFFFFFAD
:1052A000FFFFFFFFFFFFFFFFFFFFFFFFBEFF7DEFE1
:1052B000FBDEFBDEBAD679CEBAD678C6C739000097
:1052C000410800000000C73979CE00008210C318E1
:1052D000042105298631B39CFFFFFFF775DDC7E97F
:1052E000C7F901F801F000E849E2FBEEFFFFFFFF1C
:1052F000FFFFFFFFFFFFFFFFFFFFFFFFBEF77DEF99
:10530000FBDEFBDEBAD679CEBAD6B9CE08420000B3
:10531000000000000000C73938C60000821082106B
:105320000421042145293084FFFFFFFF38DEC4D06B
:1053300000F001F800F800F008D2FBE6FFFFFFFFE5
:10534000FFFFFFFFFFFFFFFFFFFFFFFFBEF77DEF48
:10535000FBDEBAD679CE79CEBAD679CEC739410836
:10536000000000000000863138C600000000C318AD
:10537000CB5A8631C318CB5A7DEFFFFF7DEFCFBBF1
:10538000C3B041D041D082B84DB37DE7FFFFFFFFEE
:10539000FFFFFFFFFFFFFFFFFFFFBEF7BEF73DEF81
:1053A000FBDEBAD679CE79CEFAD6F7BD04218631A6
:1053B000042100000000863138C68631C318CB5A5C
:1053C00075ADCF7B41088631F7BDFFFFFFFFBEEF14
:1053D00074B5309C309C72A4BBD6FFFFFFFFFFFF6B
:1053E000FFFFFFFFFFFFFFFFFFFFBEF77DEF3CE783
:1053F000FBDEBAD679CE79CE3CE7718C81080C639E
:10540000CF7B821000008A5238C675AD718CB6B55C
:105410003CE7FBDEC7390000CF73FFFFFFFFFFFF54
:10542000FFFFFFFFFFFFFFFFFFFFFFFFFFFFFFFF8C
:10543000FFFFFFFFFFFFFFFFBEF77DEF7DEF3BDFCD
:10544000FAD679CE79CEFBDEB9CEC739C420718CBD
:10545000BAD6718CCB5AB294BAD6FFFF7DEF7DEFEE
:10546000FFFFFFFFB6B54629051975A5FFFFFFFF32
:10547000FFFFFFFFFFFFFFFFFFFFFFFFFFFFFFFF3C
:10548000FFFFFFFFFFFFFFFFBEF77DEF3CE7FBDE07
:10549000BAD679CEBAD6FCDE4E6342080C63F7BDAD
:1054A000BEF7FFFFFBDEFBDEBEF7FFFFFFFFFFFFE8
:1054B000FFFFFFFFFFFFF49C04210521B6A5FFFFBE
:1054C000FFFFFFFFFFFFFFFFFFFFFFFFFFFFFFFFEC
:1054D000FFFFFFFFBEF7BEF77DEF3CE7FBDEBAD66E
:1054E00079CEFBDEBBD6D17383188639349DBDEFF0
:1054F000FFFFFFFFFFFFFFFFFFFFFFFFFFFFFFFFBC
:10550000FFFFBEFF35D6EBCC43B340510519F58CF8
:10551000BEEFFFFFFFFFFFFFFFFFFFFFFFFFFFFFEC
:10552000BEF7BEF77DEF7DEF3CE7FBDEBADEBAD615
:105530003CDF3ABE4F63824940A323B4CC833ABEDA
:10554000FFFFFFFFFFFFFFFFFFFFFFFFFFFFFFFF6B
:10555000BFF7B5BD829220F4A0FC60E44082844194
:105560008F6B77AD3DE7FFFFFFFFFEFFBEF7BEF796
:10557000BEF77DEF7DEF3CE7FBDEFBDE3DE7BBCE1C
:10558000369D0B6B416A60C420FE60F5008BC76AD4
:1055900038C6BEF7FFFFFFFFFFFFFFFFFFFFFFFF64
:1055A0007DEF4B7B80B2A0FCA0FCE0FCE0FCC0CB1C
:1055B000C18A45624D6BB394F7BD3DDFFFF7FFFF36
:1055C000BEF77DEF7DEF7DE73DDFBAC675A58D7B2C
:1055D000847A40B3E0ECE0FDE0FD60F520E5A0D486
:1055E0000A6BFBDEFFFFFFFFFFFFFFFFFFFFFFFF79
:1055F0007DEFCC9340EB60FCA0FCE0FC20FD60FD67
:1056000020F5A0D4C0BB429B458B6B9CAE9C718C9B
:10561000B394339D34A5F2A4F0B4CA9B049B40BB61
:1056200020E420FDA0FDA0FDE0FDE0FDE0FD20C4A4
:10563000885A38BEFFFFFFFFFFFFFFFFFFFFFFFF9E
:10564000FFFF78D646AB40DB20F460FCA0FCE0FC1A
:1056500060FDA0FD60FD20F5A0DCC0B3C05186292F
:105660000D638F7B0D5BC741018200C3C0E360FC0B
:10567000A0FCE0FCE0FC60F560F520E5809B866224
:10568000308479CEFFFFFFFFFFFFFFFFFFFFFFFF2B
:10569000FFFFFFFF38C62D9C059343A382B3C2BB17
:1056A000C2BB22B482A34293C37A85620B63718426
:1056B000B6B579CE79C6B5AD70944A8B068304939E
:1056C000049B439B439B4393048308738D73B39460
:1056D00079CE7DEFFFFFFFFFFFFFFFFFFFFFFFFF23
:1056E000FFFFFFFFFFFF3CDF38BE75B533A533A5D5
:1056F000F39CF39CF39CF394F39C35A5F8BDFBDE7F
:10570000BEF7FFFFFFFFFFFF7EEFBBD6F8BDB6ADD4
:1057100075AD34A5339D349D35A5B7AD79C63CE74D
:10572000BEF7FFFFFFFFFFFFFFFF000000000000CC
:10573000000000000000000000003F4000000000EA
:105740000000000030004000300040000000090070
:105750000BC03D000BC03D00090018C024407FE095
:10576000224031800000180024C01B000D80324010
:10577000018003801C4027401C800740004010002F
:1057800060000000000000000000000000000000B9
:105790001F80204040200000402020401F8000004B
:1057A0000000090006001F80060009000000040038
:1057B00004003F80040004000000001000600000AE
:1057C00000000000000004000400040004000400C5
:1057D0000000000000400000000000000000002069
:1057E00001C006003800400000001F80204020401B
:1057F00020401F800000000010403FC0004000001B
:10580000000018C0214022402440184000001080B1
:105810002040244024401B80000002000D001100A5
:105820003FC0014000003C802440244024402380AD
:1058300000001F80244024403440038000003000DA
:10584000200027C03800200000001B802440244096
:1058500024401B8000001C0022C0224022401F80E8
:1058600000000000000008400000000000000000F0
:1058700000000460000000000000000004000A00B6
:1058800011002080404009000900090009000900BA
:10589000000000004040208011000A0004001800B1
:1058A000200023402400180000001F8020402740D3
:1058B00029401F400000004007C039000F0001C010
:1058C000004020403FC0244024401B8000001F8037
:1058D0002040204020403080000020403FC0204039
:1058E00020401F80000020403FC024402E4030C098
:1058F000000020403FC024402E00300000000F0078
:105900001080204022403380020020403FC004002D
:1059100004003FC02040204020403FC020402040A5
:1059200000000060202020203FC0200020002040F8
:105930003FC024400B0030C0204020403FC02040EA
:105940000040004000C03FC03C0003C03C003FC0DE
:10595000000020403FC00C4023003FC020001F80BB
:105960002040204020401F80000020403FC02440B5
:105970002400180000001F802140214020E01FA0CB
:10598000000020403FC02440260019C0004018C03D
:1059900024402440224031800000300020403FC09D
:1059A00020403000000020003F80004000403F8049
:1059B000200020003E0001C0070038002000380011
:1059C00007C03C0007C038000000204039C0060076
:1059D00039C0204000002000384007C03840200077
:1059E0000000304021C02640384020C000000000A8
:1059F00000007FE0402040200000000070000C000C
:105A00000380004000000000402040207FE00000B4
:105A100000000000200040002000000000000010F6
:105A200000100010001000100010000000004000E6
:105A3000000000000000000002800540054003C097
:105A4000004020003FC004400440038000000000EC
:105A5000038004400440064000000000038004402E
:105A600024403FC000400000038005400540034043
:105A70000000000004401FC024402440200000001B
:105A800002E0055005500650042020403FC004406D
:105A9000040003C000400000044027C00040000094
:105AA000000000100010041027E00000000020405B
:105AB0003FC00140070004C00440204020403FC0D8
:105AC00000400040000007C0040007C0040003C0FD
:105AD0000000044007C00440040003C00040000070
